{
  "contractName": "PayRoll",
  "abi": [
    {
      "constant": false,
      "inputs": [
        {
          "name": "transferTo",
          "type": "address"
        }
      ],
      "name": "directTransfer",
      "outputs": [],
      "payable": true,
      "stateMutability": "payable",
      "type": "function"
    },
    {
      "constant": false,
      "inputs": [],
      "name": "loadAmount",
      "outputs": [
        {
          "name": "",
          "type": "uint16"
        }
      ],
      "payable": true,
      "stateMutability": "payable",
      "type": "function"
    },
    {
      "constant": false,
      "inputs": [
        {
          "name": "receiver",
          "type": "address"
        },
        {
          "name": "amountInEth",
          "type": "uint256"
        },
        {
          "name": "dayDD",
          "type": "uint8"
        },
        {
          "name": "monthMM",
          "type": "uint8"
        },
        {
          "name": "yearYYYY",
          "type": "uint16"
        }
      ],
      "name": "addPayee",
      "outputs": [
        {
          "name": "success",
          "type": "bool"
        }
      ],
      "payable": false,
      "stateMutability": "nonpayable",
      "type": "function"
    },
    {
      "constant": true,
      "inputs": [
        {
          "name": "",
          "type": "uint256"
        },
        {
          "name": "amountInEth",
          "type": "uint256"
        },
        {
          "name": "dayDD",
          "type": "uint8"
        },
        {
          "name": "monthMM",
          "type": "uint8"
        },
        {
          "name": "yearYYYY",
          "type": "uint16"
        }
      ],
      "name": "employees",
      "outputs": [
        {
          "name": "receiver",
          "type": "address"
        },
        {
          "name": "amount",
          "type": "uint256"
        },
        {
          "name": "dayDD",
          "type": "uint8"
        },
        {
          "name": "monthMM",
          "type": "uint8"
        },
        {
          "name": "yearYYYY",
          "type": "uint16"
        },
        {
          "name": "isTransactionDone",
          "type": "bool"
        }
      ],
      "payable": false,
      "stateMutability": "view",
      "type": "function"
    },
    {
      "constant": true,
      "inputs": [
        {
          "name": "input",
          "type": "address"
        }
      ],
      "name": "checkBalance",
      "outputs": [
        {
          "name": "",
          "type": "uint256"
        },
        {
          "name": "amount",
          "type": "uint256"
        },
        {
          "name": "dayDD",
          "type": "uint8"
        },
        {
          "name": "monthMM",
          "type": "uint8"
        },
        {
          "name": "yearYYYY",
          "type": "uint16"
        },
        {
          "name": "isTransactionDone",
          "type": "bool"
        }
      ],
      "payable": false,
      "stateMutability": "view",
      "type": "function"
    },
    {
      "constant": true,
      "inputs": [],
      "name": "reqBalanceInEth",
      "outputs": [
        {
          "name": "",
          "type": "uint256"
        }
      ],
      "payable": false,
      "stateMutability": "view",
      "type": "function"
    },
    {
      "constant": true,
      "inputs": [
        {
          "name": "input",
          "type": "address"
        }
      ],
      "name": "availableBalanceInEth",
      "outputs": [
        {
          "name": "",
          "type": "uint256"
        }
      ],
      "payable": false,
      "stateMutability": "view",
      "type": "function"
    },
    {
      "constant": false,
      "inputs": [],
      "name": "executeTransations",
      "outputs": [
        {
          "name": "",
          "type": "uint256"
        }
      ],
      "payable": false,
      "stateMutability": "nonpayable",
      "type": "function"
    },
    {
      "constant": true,
      "inputs": [],
      "name": "contractAddress",
      "outputs": [
        {
          "name": "",
          "type": "address"
        }
      ],
      "payable": false,
      "stateMutability": "view",
      "type": "function"
    },
    {
      "constant": true,
      "inputs": [],
      "name": "currentMonth",
      "outputs": [
        {
          "name": "",
          "type": "uint8"
        }
      ],
      "payable": true,
      "stateMutability": "payable",
      "type": "constructor"
    },
    {
      "constant": true,
      "inputs": [],
      "name": "availableBalanceInEth",
      "outputs": [
        {
          "name": "",
          "type": "uint256"
        }
      ],
      "payable": true,
      "stateMutability": "payable",
      "type": "fallback"
    },
    {
      "constant": false,
      "inputs": [],
      "name": "executeTransations",
      "outputs": [],
      "payable": false,
      "stateMutability": "nonpayable",
      "type": "function"
    },
    {
      "constant": true,
      "inputs": [],
      "name": "contractAddress",
      "outputs": [
        {
          "name": "",
          "type": "address"
        }
      ],
      "payable": false,
      "stateMutability": "view",
      "type": "function"
    },
    {
      "inputs": [],
      "payable": true,
      "stateMutability": "payable",
      "type": "constructor"
    },
    {
      "payable": true,
      "stateMutability": "payable",
      "type": "fallback"
    }
  ],
  "bytecode": "0x606060405260006003819055600455670de0b6b3a7640000340460035560058054600160a060020a03191630600160a060020a0316179055610ab0806100466000396000f300606060405236156100965763ffffffff7c01000000000000000000000000000000000000000000000000000000006000350416630603066a81146100aa57806313d23460146100c057806326f041bc146100c85780634739326b146101115780635f51522614610176578063638d42ed146101a757806394fbf03b146101ba578063d4288052146101cd578063f6b4dfb4146101e0575b60038054670de0b6b3a76400003404019055005b6100be600160a060020a036004351661020f565b005b6100be610244565b34156100d357600080fd5b6100fd600160a060020a036004351660243560ff6044358116906064351661ffff60843516610258565b604051901515815260200160405180910390f35b341561011c57600080fd5b61012760043561039b565b604051600160a060020a039096168652602086019490945260ff92831660408087019190915291909216606085015261ffff909116608084015290151560a083015260c0909101905180910390f35b341561018157600080fd5b610195600160a060020a03600435166103f8565b60405190815260200160405180910390f35b34156101b257600080fd5b610195610413565b34156101c557600080fd5b610195610419565b34156101d857600080fd5b6100be61041f565b34156101eb57600080fd5b6101f3610628565b604051600160a060020a03909116815260200160405180910390f35b600160a060020a0381163480156108fc0290604051600060405180830381858888f19350505050151561024157600080fd5b50565b60038054670de0b6b3a76400003404019055565b600080610263610993565b600160a060020a0388168152670de0b6b3a764000087026020820181905260ff80881660408401528616606083015261ffff85166080830152600060a08301819052805491935090600181016102b983826109c8565b600092835260209092208391600302018151815473ffffffffffffffffffffffffffffffffffffffff1916600160a060020a039190911617815560208201518160010155604082015160028201805460ff191660ff9290921691909117905560608201518160020160016101000a81548160ff021916908360ff16021790555060808201518160020160026101000a81548161ffff021916908361ffff16021790555060a0820151600290910180549115156401000000000264ff00000000199092169190911790555050600480548801905560019250505095945050505050565b60008054829081106103a957fe5b6000918252602090912060039091020180546001820154600290920154600160a060020a03909116925060ff80821691610100810482169161ffff620100008304169164010000000090041686565b670de0b6b3a7640000600160a060020a03821631045b919050565b60045481565b60035481565b42600281905560009061043190610637565b6001805460ff191660ff929092169190911790556002546104519061064c565b6001806101000a81548160ff021916908360ff160217905550610475600254610661565b6001805461ffff92909216620100000263ffff0000199092169190911790555060005b60005481101561024157600154600080546201000090920461ffff1691839081106104bf57fe5b600091825260209091206003909102016002015462010000900461ffff161180159061052057506001546000805461010090920460ff16918390811061050157fe5b6000918252602090912060039091020160020154610100900460ff1611155b801561055857506001546000805460ff909216918390811061053e57fe5b600091825260209091206002600390920201015460ff1611155b801561058e5750600080548290811061056d57fe5b6000918252602090912060039091020160020154640100000000900460ff16155b15610620576105e56000828154811015156105a557fe5b600091825260208220600390910201548154600160a060020a039091169190849081106105ce57fe5b9060005260206000209060030201600101546106f1565b5060016000828154811015156105f757fe5b906000526020600020906003020160020160046101000a81548160ff0219169083151502179055505b600101610498565b600554600160a060020a031681565b60006106428261075a565b6040015192915050565b60006106578261075a565b6020015192915050565b6000806107b26301e133808404810190829061067c9061085c565b6106898361ffff1661085c565b039050806301e285000283019250806107b2830361ffff16036301e1338002830192505b848311156106e9576106c160018303610877565b156106d4576301e28500830392506106de565b6301e13380830392505b6001820391506106ad565b509392505050565b60008082116106ff57600080fd5b600160a060020a03831682156108fc0283604051600060405180830381858888f19350505050151561073057600080fd5b5060038054670de0b6b3a76400008304908190039091556004805491909103905560015b92915050565b6107626109f9565b600080808061077086610661565b61ffff1685526107816107b261085c565b61078f865161ffff1661085c565b039250826301e285000284019350826107b286600001510361ffff16036301e133800284019350600191505b600c60ff831611610802576107d18286516108cd565b60ff16620151800290508584820111156107f35760ff82166020860152610802565b928301926001909101906107bb565b600191505b610816856020015186516108cd565b60ff168260ff161115156108535785846201518001111561083f5760ff82166040860152610853565b620151809390930192600190910190610807565b50505050919050565b60001901600061019082046064830460048404030192915050565b6000600461ffff83160661ffff16156108925750600061040e565b606461ffff83160661ffff16156108ab5750600161040e565b61019061ffff83160661ffff16156108c55750600061040e565b506001919050565b60008260ff16600114806108e457508260ff166003145b806108f257508260ff166005145b8061090057508260ff166007145b8061090e57508260ff166008145b8061091c57508260ff16600a145b8061092a57508260ff16600c145b156109375750601f610754565b8260ff166004148061094c57508260ff166006145b8061095a57508260ff166009145b8061096857508260ff16600b145b156109755750601e610754565b61097e82610877565b1561098b5750601d610754565b50601c610754565b60c06040519081016040908152600080835260208301819052908201819052606082018190526080820181905260a082015290565b8154818355818115116109f4576003028160030283600052602060002091820191016109f49190610a35565b505050565b60e06040519081016040908152600080835260208301819052908201819052606082018190526080820181905260a0820181905260c082015290565b610a8191905b80821115610a7d57805473ffffffffffffffffffffffffffffffffffffffff191681556000600182015560028101805464ffffffffff19169055600301610a3b565b5090565b905600a165627a7a72305820a69b18c333cb6cad56e9a89a1cf4e37791f95e89d1dd588a225522594aaf570e0029",
  "source": "pragma solidity ^0.4.17;\r\n\r\ncontract PayRoll{\r\n\r\n\r\n    Payee[] public employees;\r\n    \r\n    uint8 private currentDay;\r\n    uint8 private currentMonth;\r\n    uint16 private currentYear;\r\n    uint private unixTime;\r\n    \r\n    uint public availableBalanceInEth = 0;\r\n    uint public reqBalanceInEth = 0;\r\n    \r\n    address public contractAddress;\r\n    \r\n    mapping (address => uint256) private balances;\r\n    \r\n    function PayRoll() payable public {\r\n        availableBalanceInEth = msg.value/1000000000000000000;\r\n        contractAddress = this;\r\n    }\r\n    \r\n    function() payable public {\r\n        availableBalanceInEth += msg.value/1000000000000000000;\r\n    }\r\n    \r\n    function checkBalance(address input) constant public returns(uint){\r\n        return input.balance/1000000000000000000;\r\n    }\r\n    \r\n    function loadAmount() payable public {\r\n        msg.value;\r\n        availableBalanceInEth = availableBalanceInEth + msg.value/1000000000000000000;\r\n    }\r\n    \r\n    struct Payee {\r\n        address receiver;\r\n        uint amount;\r\n        uint8 dayDD;\r\n        uint8 monthMM;\r\n        uint16 yearYYYY;\r\n        bool isTransactionDone;\r\n    }\r\n    \r\n    \r\n// current _DateTime //\r\n    struct _DateTime {\r\n        uint16 year;\r\n        uint8 month;\r\n        uint8 day;\r\n        uint8 hour;\r\n        uint8 minute;\r\n        uint8 second;\r\n        uint8 weekday;\r\n    }\r\n    \r\n    uint constant DAY_IN_SECONDS = 86400;\r\n    uint constant YEAR_IN_SECONDS = 31536000;\r\n    uint constant LEAP_YEAR_IN_SECONDS = 31622400;\r\n    uint constant HOUR_IN_SECONDS = 3600;\r\n    uint constant MINUTE_IN_SECONDS = 60;\r\n    uint16 constant ORIGIN_YEAR = 1970;\r\n    \r\n    function isLeapYear(uint16 year) private pure returns (bool) {\r\n        if (year % 4 != 0) {\r\n                return false;\r\n        }\r\n        if (year % 100 != 0) {\r\n                return true;\r\n        }\r\n        if (year % 400 != 0) {\r\n                return false;\r\n        }\r\n        return true;\r\n    }\r\n    \r\n    function leapYearsBefore(uint year) private pure returns (uint) {\r\n        year -= 1;\r\n        return year / 4 - year / 100 + year / 400;\r\n    }\r\n    \r\n    function getDaysInMonth(uint8 month, uint16 year) private pure returns (uint8) {\r\n        if (month == 1 || month == 3 || month == 5 || month == 7 || month == 8 || month == 10 || month == 12) {\r\n                return 31;\r\n        }\r\n        else if (month == 4 || month == 6 || month == 9 || month == 11) {\r\n                return 30;\r\n        }\r\n        else if (isLeapYear(year)) {\r\n                return 29;\r\n        }\r\n        else {\r\n                return 28;\r\n        }\r\n    }\r\n    \r\n    function parseTimestamp(uint timestamp) internal pure returns (_DateTime dt) {\r\n        uint secondsAccountedFor = 0;\r\n        uint buf;\r\n        uint8 i;\r\n    \r\n        // Year\r\n        dt.year = getYear(timestamp);\r\n        buf = leapYearsBefore(dt.year) - leapYearsBefore(ORIGIN_YEAR);\r\n    \r\n        secondsAccountedFor += LEAP_YEAR_IN_SECONDS * buf;\r\n        secondsAccountedFor += YEAR_IN_SECONDS * (dt.year - ORIGIN_YEAR - buf);\r\n    \r\n        // Month\r\n        uint secondsInMonth;\r\n        for (i = 1; i <= 12; i++) {\r\n                secondsInMonth = DAY_IN_SECONDS * getDaysInMonth(i, dt.year);\r\n                if (secondsInMonth + secondsAccountedFor > timestamp) {\r\n                        dt.month = i;\r\n                        break;\r\n                }\r\n                secondsAccountedFor += secondsInMonth;\r\n        }\r\n    \r\n        // Day\r\n        for (i = 1; i <= getDaysInMonth(dt.month, dt.year); i++) {\r\n                if (DAY_IN_SECONDS + secondsAccountedFor > timestamp) {\r\n                        dt.day = i;\r\n                        break;\r\n                }\r\n                secondsAccountedFor += DAY_IN_SECONDS;\r\n        }\r\n    \r\n    \r\n    }\r\n    \r\n    function getYear(uint timestamp) private pure returns (uint16) {\r\n        uint secondsAccountedFor = 0;\r\n        uint16 year;\r\n        uint numLeapYears;\r\n    \r\n        // Year\r\n        year = uint16(ORIGIN_YEAR + timestamp / YEAR_IN_SECONDS);\r\n        numLeapYears = leapYearsBefore(year) - leapYearsBefore(ORIGIN_YEAR);\r\n    \r\n        secondsAccountedFor += LEAP_YEAR_IN_SECONDS * numLeapYears;\r\n        secondsAccountedFor += YEAR_IN_SECONDS * (year - ORIGIN_YEAR - numLeapYears);\r\n    \r\n        while (secondsAccountedFor > timestamp) {\r\n                if (isLeapYear(uint16(year - 1))) {\r\n                        secondsAccountedFor -= LEAP_YEAR_IN_SECONDS;\r\n                }\r\n                else {\r\n                        secondsAccountedFor -= YEAR_IN_SECONDS;\r\n                }\r\n                year -= 1;\r\n        }\r\n        return year;\r\n    }\r\n    \r\n    function getMonth(uint timestamp) private pure returns (uint8) {\r\n        return parseTimestamp(timestamp).month;\r\n    }\r\n    \r\n    function getDay(uint timestamp) private pure returns (uint8) {\r\n        return parseTimestamp(timestamp).day;\r\n    }\r\n    \r\n    \r\n    function addPayee(address receiver, uint amountInEth, uint8 dayDD, uint8 monthMM, uint16 yearYYYY) public returns (bool success) {\r\n        uint ethToWeiConv = amountInEth * 1000000000000000000;\r\n        Payee memory newPayee;\r\n        newPayee.receiver = receiver;\r\n        newPayee.amount = ethToWeiConv;\r\n        newPayee.dayDD = dayDD;\r\n        newPayee.monthMM = monthMM;\r\n        newPayee.yearYYYY = yearYYYY;\r\n        newPayee.isTransactionDone = false;\r\n        employees.push(newPayee);\r\n        reqBalanceInEth += amountInEth;\r\n        \r\n        return true;\r\n    }\r\n    \r\n    function transfer(address to, uint value) private returns(bool){\r\n        require(value > 0);\r\n        to.transfer(value);\r\n        availableBalanceInEth = availableBalanceInEth - value/1000000000000000000;\r\n        reqBalanceInEth = reqBalanceInEth - value/1000000000000000000;\r\n        return true;\r\n    }\r\n\r\n    function directTransfer(address transferTo) payable public {\r\n        transferTo.transfer(msg.value);\r\n    }\r\n    \r\n    function executeTransations() public {\r\n     unixTime = now;\r\n     currentDay = getDay(unixTime);\r\n     currentMonth = getMonth(unixTime);\r\n     currentYear = getYear(unixTime);\r\n        \r\n        for(uint i = 0; i < employees.length; i++) {\r\n            if(employees[i].yearYYYY <= currentYear && employees[i].monthMM <= currentMonth && employees[i].dayDD <= currentDay && employees[i].isTransactionDone == false) {\r\n                transfer(employees[i].receiver, employees[i].amount);\r\n                employees[i].isTransactionDone = true;\r\n            }\r\n        }\r\n\r\n    }\r\n}",
  "sourcePath": "C:\\Users\\Greenity\\testpr\\contracts\\PayRoll.sol",
  "schemaVersion": "1.0.0",
  "updatedAt": "2017-12-04T11:47:46.420Z"
}